:1000000060C0000079C0000077C0000075C000002B
:1000100073C0000071C000006FC000006DC0000020
:100020006BC0000069C0000067C0000065C0000030
:1000300063C0000061C00000D7C100005DC00000C7
:100040005BC0000059C0000057C0000055C0000050
:1000500053C0000051C000004FC000004DC0000060
:100060004BC0000049C0000008000000BE922449B7
:10007000123EABAAAA2ABECDCCCC4C3E00000080DA
:10008000BEABAAAAAA3E00000000BF000000803F4D
:100090000000000000084178D3BB4387D1133D190D
:1000A0000E3CC3BD4282AD2B3E68EC8276BED98F3A
:1000B000E1A93E4C80EFFFBE01C4FF7F3F0000007E
:1000C000000011241FBECFEFD8E0DEBFCDBF11E08E
:1000D000A0E0B1E0E2E4FBE002C005900D92A830A0
:1000E000B107D9F721E0A8E0B1E001C01D92A23626
:1000F000B207E1F7A4D223C583CF1092C50087E6EB
:100100008093C40088E18093C10086E08093C200A0
:100110000895E0ECF0E0908195FFFDCF8093C6005C
:100120000895CF93DF9300D000D0CDB7DEB76983B9
:100130007A838B839C83862FECDF8A81EADF8B8135
:10014000E8DF8C81E6DF0F900F900F900F90DF912A
:10015000CF910895ECE7F0E0808180648083EAE746
:10016000F0E08081876880830895ECE7F0E090817B
:100170008F70907F982B9083EAE7F0E08081806415
:100180008083808186FDFDCF609178007091790039
:1001900080E090E043C30895CF92DF92EF92FF9208
:1001A0006B017C0124E330E847EF5EE3E9D3882369
:1001B000B4F024EB38EC46E35FE3C701B601C2D2EA
:1001C00018166CF020E030E04EE952E4C701B601A9
:1001D00020D421EE3AE741EF52E450D20CC020E0A7
:1001E00030E04EE952E4C701B60113D421EE3AE7FC
:1001F00041E753E442D2FF90EF90DF90CF90089513
:100200004F925F926F927F92AF92BF92CF92DF92A6
:10021000EF92FF920F931F93CF93DF93CDB7DEB78B
:1002200028970FB6F894DEBF0FBECDBF29013A0163
:10023000E982FA820B831C832EE032EA45EB5BE312
:10024000E8D36D837E838F83988725ED32EB45E37A
:100250005CE3C301B201DDD39B01AC016D817E8102
:100260008F8198850BD22B013C012EE032EA45EBC1
:100270005BE3C801B701CDD39B01AC01C301B2015F
:10028000FDD12B013C0126E436EB43EE5FEBC601CA
:10029000B501BFD39B01AC01C301B201EED16B012B
:1002A0007C012BE331E04DE45FE3698D7A8D8B8D2A
:1002B0009C8DAFD39B01AC01C701B601DED128965E
:1002C0000FB6F894DEBF0FBECDBFDF91CF911F9167
:1002D0000F91FF90EF90DF90CF90BF90AF907F9005
:1002E0006F905F904F9008954F925F926F927F92C0
:1002F000AF92BF92CF92DF92EF92FF920F931F9334
:10030000CF93DF93CDB7DEB728970FB6F894DEBF53
:100310000FBECDBF69837A838B839C8329013A0109
:10032000ED82FE820F831887198D0A8DFB8CEC8C71
:100330002D813E814F815885C301B20103D2181629
:100340005CF029813A814B815C816D817E818F8156
:100350009885F8D1181604F5A6019501C301B201DC
:100360000FD388234CF0A601950169817A818B8196
:100370009C81E8D1181684F4A301920169817A81E5
:100380008B819C817AD12AE037ED43E25CE3DED1B8
:10039000162F072FF82EE92E612F702F8F2D9E2DEF
:1003A00028960FB6F894DEBF0FBECDBFDF91CF9178
:1003B0001F910F91FF90EF90DF90CF90BF90AF9083
:1003C0007F906F905F904F9008958BE987BD16BC2A
:1003D000EEE6F0E080818260808385B5856085BD32
:1003E00082E084BD789408951F920F920FB60F9209
:1003F00011244F925F926F927F92AF92BF92CF92F1
:10040000DF92EF92FF920F931F932F933F934F939F
:100410005F936F937F938F939F93AF93BF93EF936C
:10042000FF9381E0A2DE20E030E040EA5BE3F1D21E
:10043000609308017093090180930A0190930B0166
:10044000ABDE2B013C0160930C0170930D01809396
:100450000E0190930F01A0900001B0900101C09097
:100460000201D0900301E0900401F0900501009199
:1004700006011091070120915201309153014091E2
:1004800054015091550180912D018F9380912C0141
:100490008F9380912B018F9380912A018F93C301B9
:1004A000B20122DF0F900F900F900F906093220106
:1004B000709323018093240190932501409252016F
:1004C00050925301609254017092550160932A0139
:1004D00070932B0180932C0190932D01A0901A0111
:1004E000B0901B01C0901C01D0901D01E0901E0136
:1004F000F0901F010091200110912101209126010F
:10050000309127014091280150912901E091130178
:10051000EF93E0911201EF93E0911101EF93E091DD
:100520001001EF936DDE0F900F900F900F902B0145
:100530003C0160935E0170935F0180936001909332
:10054000610120E030E040E450E463D220E030E09C
:100550004AE755E4FBD09B01AC0160E070E080E825
:100560009FE38BD016D2DC01CB01B05880935A01A7
:1005700090935B01A0935C01B0935D01C301B20154
:10058000D0DD8091260190912701A0912801B091A2
:10059000290180931E0190931F01A0932001B09325
:1005A00021018091220190912301A0912401B09119
:1005B00025018093260190932701A0932801B093F1
:1005C000290180911A0190911B01A0911C01B09109
:1005D0001D018093100190931101A0931201B0931B
:1005E000130180915E0190915F01A0916001B09133
:1005F000610180931A0190931B01A0931C01B09399
:100600001D0116BCFF91EF91BF91AF919F918F910A
:100610007F916F915F914F913F912F911F910F911A
:10062000FF90EF90DF90CF90BF90AF907F906F9052
:100630005F904F900F900FBE0F901F9018958ADD1E
:1006400081E087B988B991DD20E030E040EA5BE3E2
:10065000E0D1609316017093170180931801909375
:1006600019019ADD609352017093530180935401F4
:1006700090935501AADE41DDFFCF5058BB27AA2732
:100680000ED044C135D130F03AD120F031F49F3F43
:1006900011F41EF42AC10EF4E095E7FB20C1E92F06
:1006A00046D180F3BA17620773078407950718F0DD
:1006B00071F49EF55EC10EF4E0950B2EBA2FA02DBD
:1006C0000B01B90190010C01CA01A0011124FF27FF
:1006D000591B99F0593F50F4503E68F11A16F040FA
:1006E000A22F232F342F4427585FF3CF46953795F9
:1006F0002795A795F0405395C9F77EF41F16BA0BBE
:10070000620B730B840BBAF09150A1F0FF0FBB1F6B
:10071000661F771F881FC2F70EC0BA0F621F731FB4
:10072000841F48F4879577956795B795F7959E3F11
:1007300008F0B3CF9395880F08F09927EE0F97959F
:1007400087950895A8D008F481E008950CD0DEC004
:10075000D6D040F0CDD030F021F45F3F19F0BFC0CB
:10076000511108C1C2C0E3D098F39923C9F35523AE
:10077000B1F3951B550BBB27AA2762177307840794
:1007800038F09F5F5F4F220F331F441FAA1FA9F34A
:1007900033D00E2E3AF0E0E830D091505040E6953C
:1007A000001CCAF729D0FE2F27D0660F771F881F9D
:1007B000BB1F261737074807AB07B0E809F0BB0B8C
:1007C000802DBF01FF2793585F4F2AF09E3F5105B0
:1007D00068F085C0CFC05F3FECF3983EDCF38695B0
:1007E00077956795B795F7959F5FC9F7880F911D26
:1007F0009695879597F90895E1E0660F771F881F12
:10080000BB1F621773078407BA0720F0621B730BC4
:10081000840BBA0BEE1F88F7E0950895E89409C0A1
:1008200097FB3EF490958095709561957F4F8F4F23
:100830009F4F9923A9F0F92F96E9BB279395F69539
:10084000879577956795B795F111F8CFFAF4BB0FB7
:1008500011F460FF1BC06F5F7F4F8F4F9F4F16C01B
:10086000882311F096E911C0772321F09EE8872FA5
:10087000762F05C0662371F096E8862F70E060E061
:100880002AF09A95660F771F881FDAF7880F9695DA
:10089000879597F90895990F0008550FAA0BE0E87E
:1008A000FEEF16161706E807F907C0F01216130632
:1008B000E407F50798F0621B730B840B950B39F472
:1008C0000A2661F0232B242B252B21F408950A26D8
:1008D00009F4A140A6958FEF811D811D089597F918
:1008E0009F6780E870E060E008959FEF80EC0895D6
:1008F00000240A94161617061806090608950024FF
:100900000A9412161306140605060895092E039478
:10091000000C11F4882352F0BB0F40F4BF2B11F4EC
:1009200060FF04C06F5F7F4F8F4F9F4F089557FD4B
:100930009058440F551F59F05F3F71F04795880F4D
:1009400097FB991F61F09F3F79F0879508951216E4
:1009500013061406551FF2CF4695F1DF08C0161690
:1009600017061806991FF1CF869571056105089441
:100970000895E894BB2766277727CB0197F9089558
:100980008ADF08F48FEF08950EF0A6C0AECF68940A
:10099000A6CFD5DFC8F39923D1F3C6F3DF93CF9366
:1009A0001F930F93FF92C92FDD2788232AF02197E9
:1009B000660F771F881FDAF720E030E040E85FEB32
:1009C0009FE3883920F0803E30F021968F7756DE05
:1009D000E8E6F0E003C052DEE5E9F0E08BD08B0101
:1009E000BE01EC01FB2E6F5771097595771F880BBF
:1009F000990B16DF28E132E741E35FE316D0AF2D14
:100A00009801AE01FF900F911F91CF91DF9147DECA
:100A10007DCF0BD07BCF6CDF28F071DF18F09523F2
:100A200009F05DCF62CF1124A5CF81DFA0F3959FA0
:100A3000D1F3950F50E0551F629FF001729FBB27C5
:100A4000F00DB11D639FAA27F00DB11DAA1F649F71
:100A50006627B00DA11D661F829F2227B00DA11D24
:100A6000621F739FB00DA11D621F839FA00D611DAA
:100A7000221F749F3327A00D611D231F849F600DCB
:100A8000211D822F762F6A2F11249F5750408AF004
:100A9000E1F088234AF0EE0FFF1FBB1F661F771F90
:100AA000881F91505040A9F79E3F510570F017CF15
:100AB00061CF5F3FECF3983EDCF3869577956795C1
:100AC000B795F795E7959F5FC1F7FE2B880F911DAE
:100AD0009695879597F908959F3F31F0915020F4AE
:100AE000879577956795B795880F911D969587950A
:100AF00097F90895DF93CF931F930F93FF92EF928F
:100B0000DF927B018C01689405C0DA2EEF018DDF46
:100B1000FE01E894A5912591359145915591AEF34B
:100B2000EF01BDDDFE019701A801DA9479F7DF90AE
:100B3000EF90FF900F911F91CF91DF910895F8945E
:020B4000FFCFE5
:080B42000000C8420000F0426F
:00000001FF
